:020000040800F2
:10000000000002200D3A00080B3A0008093A0008E7
:10001000093A0008093A0008093A000800000000FF
:100020000000000000000000000000000B3A000883
:100030000B3A0008000000000B3A00088506000893
:10004000093A0008093A0008093A0008093A000884
:10005000093A0008093A0008093A0008093A000874
:10006000093A0008093A0008093A0008093A000864
:10007000093A0008093A0008093A0008093A000854
:10008000093A0008093A0008093A0008093A000844
:10009000093A0008093A0008093A0008093A000834
:1000A000093A0008093A0008093A0008093A000824
:1000B000093A0008093A0008093A0008093A000814
:1000C000093A0008093A0008093A0008093A000804
:1000D000093A0008093A0008093A0008093A0008F4
:1000E000093A0008093A0008093A0008093A0008E4
:1000F000093A0008093A0008093A0008093A0008D4
:10010000093A0008093A0008093A0008093A0008C3
:10011000093A0008093A0008093A0008093A0008B3
:10012000093A0008093A0008093A0008093A0008A3
:10013000093A0008093A0008093A0008093A000893
:10014000093A0008093A0008093A0008093A000883
:10015000093A0008093A0008093A0008093A000873
:10016000093A0008093A0008093A0008093A000863
:10017000093A0008093A0008093A0008093A000853
:10018000093A0008093A0008093A0008093A000843
:10019000093A0008093A0008093A0008093A000833
:1001A000093A0008093A0008093A0008F0B58BB08E
:1001B0000223234C0093074600230E4615462021B8
:1001C000204A02A802F04AFB0020207000F0C8FA82
:1001D0000F2121700A2102AA084600F009FB1A4AE1
:1001E0001E210A2000F004FB3A461E21462000F0A2
:1001F000FFFA164A28210A2000F0FAFA324628218E
:10020000462000F0F5FA124A17684FF4FA760C23EC
:10021000B7FBF6FC06FB1C704343A3F6B83100297C
:10022000B8BF49420A20FA2291FBF2F72A463C2144
:100230000337277000F0DCFA00F08CFA0BB0F0BD49
:10024000D84500208E5000089F500008A850000894
:10025000F04500201FB503460C4A08461968914234
:100260000DD1D98B02915A7F0192197F00910433ED
:10027000074A202102F0F2FA05B05DF804FB054AB6
:10028000202105B05DF804EB02F0E8BABEBADEFA50
:10029000B0500008BE5000082DE9F04FADF2545D9B
:1002A0000EA9A14816ACFFF7D5FFA04A2021204691
:1002B00002F0D4FA9E4A21460EA8FFF777FF0EA956
:1002C0009C4800F045FB9C4800F042FB1EAE2023FA
:1002D000009306AA334605A926A801F0A1FC814691
:1002E00000284ED0214626A8FFF7B4FF21469348A8
:1002F000934F00F02DFB0599924800F029FB92489E
:1003000000F026FB002506A8415D3846013500F0C7
:100310001FFB102DF7D18D48DFF874A2DFF810B263
:1003200000F016FB8A4800F013FB2EA801F0E6F857
:10033000059D4FF06408002D3ED0059A511B08FB27
:1003400001FC2046BCFBF2F32021524602F086FA63
:100350005A4621460EA8FFF729FFB5F5806F2F46B4
:1003600028BF4FF4806720233246394654A801F055
:10037000CBFC08B33A4654A92EA801F0D5F8ED1BE2
:10038000D9E73146734800F0E3FA00250EA9664824
:10039000FFF760FF00F084FB002D08BF34466E4D70
:1003A0002A4621460EA8FFF701FF00F089FB00282E
:1003B000F6D001F004FCF3E70DF1B8080DF1280BBD
:1003C0004146584601F0EEF86448DFF874A100F0A9
:1003D000BFFA00271BF807105046013700F0B8FAA3
:1003E000102FF7D1594800F0B3FA3A46594606A8FB
:1003F00004F0A9FC074600BB5948DFF898A1DFF8D4
:1004000098B100F0A5FA214626A8FFF723FF00F0D7
:1004100047FB00F055FB0546002840F0C18000F086
:1004200059FB002812DB14D1002F0CBF52465A464C
:1004300021460EA8FFF7BAFEEBE74A4800F088FA1B
:10044000494A2021304602F009FA9EE72F465246DB
:10045000EEE74F465A46EBE70BF1010BBBF10C0FF1
:1004600040F0D880EBE0A9EB0A09ADE0054603F0C7
:1004700033FA002D39D03D48314F00F069FA3C483D
:1004800000F066FA2A4A3B490EA8FFF78FFE54A8EF
:1004900001F034F8059A384954A801F045F854A9F8
:1004A000404601F07FF82D4800F052FA002518F878
:1004B00005103846013500F04BFA102DF7D12348CE
:1004C00000F046FA2A46414606A804F03CFC002803
:1004D0000CBF012500250DD1284800F039FA284A23
:1004E0002021204602F0BAF950E73146254800F0B5
:1004F0002FFA4BE724480C4FDFF8A08000F028FAD1
:10050000224A2021304602F0A9F903F0D3F93846F7
:100510000021043703F0FCF903F0E6F94745F6D172
:1005200003F0DAF932E700BF000401085D4E00086D
:10053000384E00086A4E00087D4E00089C4E0008A8
:10054000C54E0008B44E00081F4F00081F51000898
:10055000CA4E0008E64E000876500008164F000804
:10056000284F0008354F0008564F0008C74F0008B5
:10057000D94F0008F64F000800000108225000087B
:100580003550000800500008405000086150000835
:10059000014F00084C4E00083A4E000820040108A4
:1005A000002F3FF4F3AE2021304601F023FB054637
:1005B00000283FF4EBAE2C492C482B4F00F0C8F933
:1005C00003F078F9DDF81490B9F1000F3FF44FAF64
:1005D00005986422A0EB090353432021B3FBF0F3F9
:1005E000234A204602F03AF9224A21460EA8FFF794
:1005F000DDFDB9F5806FCA4628BF4FF4806A20231D
:100600003246514654A801F07FFB00283FF42EAF3C
:100610004FF0000B184951F82B0087427FF41CAFB4
:100620003A465946154800F093F95FFA8BF00221DB
:1006300003F086F903F058F9114800F089F90AF13E
:10064000030323F0030B54AABB44D01B5F453FF4C4
:100650000AAFC1590390384603F05AF9043703F042
:1006600043F90398F2E700BF00000108674F000854
:100670008C4F0008384E0008CC5000089F4F0008EF
:10068000C14F0008024A13680133136000F0B2B989
:10069000F045002010B588B001F08AFA00F0DEF8CD
:1006A00000F080F900F0C2FA01F026F801F08AFAB1
:1006B0001F4B00241C7000F053F800F04BF821464B
:1006C0001C48022200F044F91B48017821B91B485C
:1006D0001B4C0268A24201D0FFF7DEFD6946FFF71E
:1006E000B9FD6946174800F033F901F07BFA00F0D4
:1006F000C6FF00F044FA00F071F900F0E9F801F0EB
:100700005DFA114811494FF0FF3303604360836085
:10071000C0F80031C0F80431C0F80831C0F8881BB7
:100720000A6882F308880A4C23689847FEE700BFEE
:10073000D8450020FC500008DF45002000040108D7
:10074000BEBADEFA0F51000880E100E000000108A7
:1007500004000108014800F0F4BA00BFD8050020E9
:10076000034B044819784FF4804204F006BB00BFE5
:10077000D8450020D80500202DE9F043FF28079C2C
:100780002FDC0244013A2CD43F292ADC0B44013BE4
:1007900027D4154DDFF854E095F800C04FF000095C
:1007A00099421EDC0EEB01280546954217DC09F143
:1007B0000106072EC6BF671C00262746FF2D0AD854
:1007C0003F2908D8247844FA09F909F0010414FBF8
:1007D0000CF908F805900135B1463C46E5E70131D2
:1007E000DEE7BDE8F08300BFD8450020D805002033
:1007F0002DE9F74F174FDFF860A081460E4602F152
:10080000FF38054618F8014F04B30A2C02D10F3601
:100810004D46F7E7A4F1200C5FFA8CF35E2BF1D87C
:1008200007EBCC0B37F83C409BF906109BF9050011
:100830009BF803309BF80220544428440094314430
:10084000FFF79AFF9BF804000544DBE703B0BDE81F
:10085000F08F00BF2A0100200000002010B51B4CC3
:100860004FF4C06003F094F84FF4C06320460022B8
:10087000022102F00FFF4FF4C0620721204602F070
:1008800046FFA4F5704440F6840003F081F820464A
:100890004FF4E13102F0BEFF2046082102F0D2FF02
:1008A0002046002102F0D7FF20460C2102F0DFFF96
:1008B0002046002102F0D5FF2046002102F0DDFF96
:1008C0002046BDE8104002F0DEBF00BF000002403D
:1008D00008B54FF4C06003F068F840F6840003F0F8
:1008E00064F84FF4007003F06FF840F28440BDE804
:1008F000084003F069B8000038B5054C05462046AD
:1009000002F0CAFF29462046BDE8384002F0C0BFC9
:10091000001001400A2810B5044602D10D20FFF74F
:10092000EBFF2046BDE81040FFF7E6BF38B50446B0
:100930004518AC4204D014F8010BFFF7EBFFF8E7C1
:1009400038BD10B511460446FFF7F0FF204610BD34
:100950000FB400B5A5B026AA064852F8043B03928E
:10096000009204AA114601F01BFA25B05DF804EBD1
:1009700004B0704743090008084B1A5C8A420CD047
:100980001954197849B95B783BB9054A00281168B0
:1009900008BF4FF0FF30084410607047D945002071
:1009A000E045002010B50B4C40F2026002F0F0FF71
:1009B0004FF4604301220021204602F06BFE4FF409
:1009C0000041204602F063FE034BB0FA80F041097B
:1009D000197010BD00080240DF45002008B540F244
:1009E000026002F0E2FF40F20220BDE8084002F09F
:1009F000FCBF000038B5254C254825784FF4004150
:100A000002F045FE0346B0FA80F041092170002D46
:100A100037D113B91F4C012222704FF400511C48EA
:100A20001D4C02F034FE94F800C0B0FA80F568095D
:100A3000844506D063780133D9B20229617002D9A6
:100A400020700022627021780020FFF795FF4FF49C
:100A500080410F4802F01BFE94F802C0B0FA80F506
:100A60006809844506D0E3780133D9B20229E170E0
:100A700002D9A0700022E270A1780120FFF77CFF6C
:100A800038BD002BC9D0054CC5E700BFDF450020AD
:100A900000080240E4450020DB450020E545002039
:100AA00072B6044A044805490023137003700B60B2
:100AB00062B67047E4450020E5450020E04500208F
:100AC00072B6034B002218781A7062B6704700BFE6
:100AD000E445002072B6034B002218681A6062B623
:100AE000704700BFE0450020014608B50448FFF705
:100AF0002FFF00F089FF80F00100C0B208BD00BFE9
:100B00002151000808B500F07FFF00280CBF02202B
:100B1000002008BD08B508461146DAB201F036F8E3
:100B200080F00100C0B208BD044B1A46196889075D
:100B3000FCD510680306FCD4704700BF083800409D
:100B400082B000230A2101934843019A904214D9AC
:100B500000BF00BF00BF00BF00BF00BF00BF00BF9D
:100B600000BF00BF00BF00BF00BF00BF00BF00BF8D
:100B700000BF019B01330193E7E702B0704708B55E
:100B800040F2016002F011FF40F60E0002F00DFF8E
:100B900040F2012002F018FF40F20E40BDE808408C
:100BA00002F012BF10B50446FFF7BEFF4FF400413C
:100BB000044802F069FD21460348BDE8104002F0F8
:100BC00010BE00BF000402400038004010B50446CB
:100BD000FFF7AAFF4FF40041044802F053FD2146FD
:100BE0000348BDE8104002F0FCBD00BF0004024015
:100BF0000038004010B50C4C14F8040C90B1FFF70D
:100C0000D1FF14F8033C1BB114F8020CFFF7DEFF10
:100C100014F8030C012803D914F8010CFFF7D6FFD0
:100C20000434E9E710BD00BF2604002073B5324C40
:100C3000324D334E40F2016002F0AAFE40F20260F3
:100C400002F0A6FE4FF4005320460022022102F0DB
:100C500021FD20464FF40052052102F058FD0823E3
:100C600028460022022102F015FD0822052128460F
:100C700002F04DFD40F60E0002F08AFE00253046DF
:100C800002F07AFD012302220821CDE90055304609
:100C900002F0ACFD304602F09FFD4FF450432A466F
:100CA0002046012102F0F6FC20464FF4504102F0AC
:100CB000EBFC20464FF4805102F0E6FC4FF48041FB
:100CC000204602F0DFFC4FF47A70FFF739FF4FF453
:100CD0008041204602F0D8FC6420FFF731FF4FF43A
:100CE0008041204602F0CEFC6420FFF729FF02B0CD
:100CF000BDE87040FFF77EBF0004024000080240DC
:100D00000038004038B5054615200C46FFF74AFF6D
:100D10002846FFF75BFF2046BDE83840FFF756BF87
:100D200038B5054675200C46FFF73CFF2846FFF70F
:100D30004DFF2046BDE83840FFF748BF5C20FFF775
:100D400031BF70B55B2104461C20FFF7DBFF3F215C
:100D50000020FFF7E5FFFFF7F1FFA51C04F5804435
:100D6000023405F5807615F8023C15F8010C0F2BBE
:100D7000194628BF0F210F2828BF0F2040EA011273
:100D8000D0B20235FFF722FFAE42ECD1B442E8D137
:100D900070BD00002DE9F04F034693B0CDE910126D
:100DA0001C6982685D69C06801900F920294039586
:100DB000084601680F9E99650491DDE9025106F12C
:100DC000574707F5D508019E049C039FDFF8E0E331
:100DD00008F511524D403540383222447D401544CB
:100DE000019A4468DC6502EB75610594DDE9014216
:100DF000039DE44E059F2E446240029D0A403E44FE
:100E00006A4005F110593244019D8668069609F53D
:100E1000011A01EB32521E66069C019E0AF54357E9
:100E20004D4015401B3727447540019CD64E3D442C
:100E3000C768079702EBF5355F662644079F81EA8E
:100E400002042C403E444C403444066908969E6699
:100E5000089FCE4E3E4405EBB4240E4482EA0501C1
:100E600021405140314446690996DE66099FC84ECB
:100E70003E4404EB7161164485EA04020A406A406C
:100E8000324486690A961E670A9FC24ED0F81C90AB
:100E9000C3F874903E4401EB32522E4484EA0105BB
:100EA000154065403544BC4E076A0B974E4402EB33
:100EB000F535264481EA02042C404C409F673444B7
:100EC0000B9FB64E3E4405EBB4240E4482EA050166
:100ED000214051403144466A0C96DE670C9FB04E6B
:100EE0003E4404EB7161164485EA04020A406A40FC
:100EF0003244866AC3F88060A6F5244CACF14F0BEF
:100F000001EB3252AB4484EA01051540C76AC3F8CD
:100F1000847065405D4402EBF53507EB0E080D97D4
:100F200081EA02072F4087EA010A44445444D0F87A
:100F300030E0DFF880C2C3F888E005EBB42482EA31
:100F4000050727400EEB0C0B87EA0208DFF868A2C2
:100F5000476BC3F88C7059444144BA4404EB716147
:100F6000924485EA0402D0F83880DFF850C2C3F812
:100F700090800A406A405244C44401EB3252AC446F
:100F800084EA0105154065406544DFF834B2D0F8C5
:100F90003CC00E97E34402EBF535A34481EA02041A
:100FA0002C40C3F894C04C40059FDFF818A25C4465
:100FB00005EBB424BA448A4485EA040111400A9F2F
:100FC000DFF804B26940514404EBF161BB4493443F
:100FD00084EA01022A4062400D9FDFF8F0A15A44E2
:100FE00001EBF25207EB0A0B81EA0207274087EA7E
:100FF000010A5D44049FDFF8D8B1554402EBB545C2
:10100000BB44A34482EA05040C40099FDFF8C4A155
:1010100054405C4405EB3434BA448A4485EA040104
:1010200011406940DFF8B0B1514404EBF161B344C1
:10103000934484EA01022A406240DFF8A0A15A44A6
:1010400001EBF2520CEB0A073D4481EA020727400C
:1010500087EA010BDFF888A1089F5D4402EBB545E4
:10106000BA44A24482EA05040C400C9FDFF874B134
:101070005440544405EB3434BB448B4485EA0401AA
:1010800011406940DFF860A1079F594404EBF1610A
:10109000C244924484EA01022A4062405244DFF88A
:1010A0004CA101EBF25BBA44AA4481EA0B0525404E
:1010B0004D400B9A5544DFF838A10BEBB54502EBD8
:1010C0000A078BEA05023C4402EA010787EA0B0A99
:1010D0000E9A5444DFF81CA105EB343402EB0A07E6
:1010E00085EA0402394402EA0B0787EA050A5144FB
:1010F00004EBF161069ADFF800A184EA010792444B
:1011000007EA0502D34482EA040AD34401EBFB5206
:10111000DFF8E8B081EA0207CB44274087EA010AFA
:101120005D44554402EBB545DFF8D4B082EA0507CB
:10113000F3440F4087EA020A5C44099F544405EBDC
:101140003434A7F5B82B85EA040AABF2BE673944FC
:101150008AEA020B0B9F8B44124904EB3B7B394418
:101160000A448AEA0B0A0D9F0F4992440BEB7A5A04
:101170008BEA0A0239440D440C4F82EA04010D4403
:1011800040E000BF56B7C7E8EECEBDC1AF0F7CF55B
:101190002AC68747134630A8019546FDD89880692E
:1011A000AFF7448B81F6718722619D6D0C38E5FDA8
:1011B000BED75C892211906B937198FD8E4379A6FE
:1011C0002108B44962251EF640B340C0515A5E263C
:1011D000AAC7B6E95D102FD65314440281E6A1D800
:1011E000C8FBD3E7E6CDE121D60737C3870DD5F499
:1011F000ED145A4505E9E3A9F8A3EFFCD9026F679E
:101200008A4C2A8D05990AEB354547446A403C448F
:1012100001F12447144407F53E0105EB742401F560
:101220006A4785EA040244375F4482EA0A0BBB44FA
:101230009849089F04EB3B7B394482EA0B028A44BD
:101240009244954A0BEB7A518BEA01074A4487EAAC
:10125000040A1544914A554401EB354532446F4028
:1012600014443C19DFF87CA20E9F05EB742285EA3A
:101270000204BA44D34484EA010A049FDA44DFF842
:1012800068B202EB3A7ABB4484EA0A045944079FE5
:101290002144834C0AEB71518AEA010B3C442544FA
:1012A0008BEA02040A9F25447E4C01EB35453C4401
:1012B0008BEA050B22445A440C9FDFF830B205EB51
:1012C000722485EA0402BB44DA4482EA010BDA4460
:1012D000DFF81CB2069F04EB3A7AF34482EA0A0272
:1012E00059441144DFF80CB20AEB71518AEA010249
:1012F000E344AB4482EA04055D44DFF8FCB101EB52
:101300003545BB446A405C44049F1444664A05EB7F
:1013100074243A44924464EA01026A409244634F5E
:1013200004EBBA6A6AEA05024F44394482EA0409C6
:1013300049445F4F0AEBB15161EA040247443D441E
:1013400082EA0A08099F5B4A454401EB75453A4425
:10135000144465EA0A0282EA010B5C44564F05EB2D
:10136000F42464EA01027744BA4482EA050E079F36
:10137000524AF24404EBBA6A3A4411446AEA05025A
:1013800082EA040E71440AEBB151A6F5801661EAB7
:101390000408A6F68339A944059E494A88EA0A0545
:1013A0004D4401EB75473244224467EA0A044C403D
:1013B0001444444D0B9A07EBF424154464EA0106E7
:1013C0007E40AA44B244404D0A9E04EBBA6B654489
:1013D0006BEA07026240294411443C4D0BEBB151CA
:1013E00061EA0402354482EA0B0C2F440E9E384D0C
:1013F000674401EB7747354467EA0B024A402C44C7
:10140000089E344D144407EBF424354464EA010289
:101410007A40AB4493440D9E2F4D04EBBB6A354498
:101420006AEA070262402944069E2C4D11440AEBE9
:10143000B151354461EA040282EA0A092F444F445B
:101440000C9D019A01EB7748254F68EA0A062F4464
:101450003C444E40344408EBF42B0F9C029F039D08
:101460005444DDE910CA4030D4445A4447440D4442
:1014700060450F940192029703957FF49AAC0F99FF
:10148000019E029C039A9960DE601C615A6113B050
:10149000BDE8F08FA9CFDE4B604BBBF670BCBFBE82
:1014A0008530EFD4051D8804442229F497FF2A4390
:1014B000A72394AB39A093FCC3595B6592CC0C8FE6
:1014C000D15D84854F7EA86FE0E62CFE144301A316
:1014D000A111084E827E53F735F23ABDBBD2D72A0E
:1014E00091D386EBC67E9B28FA27A1EA39D0D4D9BE
:1014F000E599DBE6F87CA21F6556ACC4094B836016
:1015000003F1883101F12942A2F5961CACF68B63F8
:10151000C1600022A3F1883103614161C0E900226A
:10152000704700BF01234567F8B50446006883187B
:101530000E4623F06041814221603EBF6168013167
:1015400061601546626810F03F0002EB55776760F6
:1015500018D0C0F14007BD4200F11800204405D268
:101560002A463146BDE8F84003F0FCBB31463A4616
:1015700003F0F8FB402204F1180120463E44ED1B25
:10158000FFF708FC3F2D08D925F03F0231462046E1
:10159000FFF700FC05F03F0506462A46314604F1F8
:1015A0001800DFE770B50546086800F03F000A182C
:1015B0000C46431C80211176C3F14002072A04F136
:1015C00018060BD819300021204403F0D6FB402226
:1015D00031462046FFF7DEFB4022002303F11800CE
:1015E000083A0021204403F0C8FB2068C1002160B4
:1015F00084F850100A0A0B0C080E616884F8512018
:1016000084F8523084F853000B0C0A0A080E84F850
:10161000541084F8552084F8563084F85700314629
:1016200040222046FFF7B6FBA6682E70A1680A0A82
:101630006A706389AB70E07AE870E6682E71E168E1
:101640000A0A6A71E389AB71E07BE87126692E7240
:1016500021690A0A6A72638AAB72E07CE872666981
:101660002E7361690A0A6A73E38AAB73E07DE873DB
:10167000982220460021BDE8704003F07EBB08B5EB
:1016800040F68B0002F091F940F2166002F08DF9FD
:1016900040F2026002F089F940F2036002F085F93D
:1016A00040F28B4002F090F940F2162002F08CF9E3
:1016B00040F2022002F088F940F20320BDE8084021
:1016C00002F082B9054B03221A6018680328FCD186
:1016D00003494FF4BB730B60704700BF002C0140FF
:1016E000042C0140034B00221A6040F28B4002F0B0
:1016F0006BB900BF002C014070B540F68B0002F0C2
:1017000047F940F2166002F043F91D4C1D4DFFF7FA
:10171000E9FF40F2026002F03BF940F2036002F0A0
:1017200037F920464FF488530022022101F0B2FF1E
:10173000284604230022022101F0ACFF20464FF48A
:1017400088530222002101F0C7FF04232846022209
:10175000002101F0C1FF20464FF488520C2101F016
:10176000D6FF284604220C2101F0D1FF002220469A
:101770004FF400631146BDE8704001F08BBF00BF1D
:1017800000080240000C024010F03F0010B513D0DA
:10179000022813D0A0F10903012B8CBF4023C023E2
:1017A000074A40F2FF74146042F8301C40F4806134
:1017B00004481943016010BD0346F1E7C023EFE779
:1017C000382C01400C2C0140124B1B6813F40062B2
:1017D0001BD113F0400004D00F4840210160104697
:1017E0007047190603D50C4980230B6070475A07D0
:1017F00004D5094B04221A6002207047DB0706D586
:101800000548012101600320704701207047042032
:10181000704700BF342C0140382C014008B5FFF759
:10182000B3FFFFF7D1FF0128FBD008BDF8B505468F
:101830000E46174600240420BC4206DA31462846EC
:10184000FFF7ECFF08B10134F6E7F8BD2DE9F843E6
:101850002928DFF8389005460F4690460CBF03262E
:1018600000260024042044450EDAB9F80010372081
:101870000904FFF7D3FF28B939462846FFF7CEFF02
:10188000864201D00134EEE7BDE8F883E845002048
:101890002DE9F8430025464CFFF714FF05222946A1
:1018A00028462580A5706560FFF7C0FF0646002822
:1018B0007CD1052240F2F1110820FFF7B7FF002884
:1018C0005FD13C4B1A6840F2F11082425BD1012695
:1018D000394D3A492F68002E364E07F5FA6714BF86
:1018E00088464FF480182B689F424CD90522414608
:1018F0002920FFF7ABFF032881463268F3D1002A85
:10190000F1DAC2F38070A070002105220220FFF7F7
:101910008DFF0146002836D105224846FFF786FF95
:1019200088BB35682F0C27806FB305223904092046
:10193000FFF77CFF38BB31688E0F29D12048214A40
:10194000076805681168166840F6FC7808EA850C97
:101950004CEA9173C6F3C230013302308340C7F3BF
:101960000347BB405B0A25886360052229040720E2
:10197000FFF75CFF38B914486168FEF7E9FF012002
:1019800004E00228A4D0FFF7ADFE0020BDE8F883F4
:10199000012EF8D10A4B0B4A18681568070407F4A2
:1019A0007C1141EA15460136B302DCE72846EDE733
:1019B000E8450020142C0140F045002000001040B4
:1019C000182C01401C2C01403B510008F8B50B4C71
:1019D0000B4F22680B4E02F57A752368AB420BD28F
:1019E00039880D200904FFF719FF0028F5D1306868
:1019F000C305F2D50120F8BD0020FCE7F04500202A
:101A0000E8450020142C014010B5064C237813B192
:101A1000FFF7DCFF2070207810B9FFF739FF207046
:101A2000207810BDE6450020B1F1005FF7B504460F
:101A30000F4603D24D48FEF78BFFFEE7FFF7C6FFC8
:101A400010B9002003B0F0BD494B987840B9052289
:101A50004FF4007110206402FFF7E8FE0028F0D177
:101A6000444E454800250321356001F025FD4FF027
:101A700000620321404801F0A0FD4FF480420321A1
:101A80003D4801F070FD4FF4805203213A4801F0C7
:101A900076FD0321384801F07EFD0321364801F030
:101AA00083FD2A460321344801F040FD334A324881
:101AB000032101F0CCFD3A4603212F4801F0CFFD70
:101AC0002A4603212C4801F0D7FD4FF44032032170
:101AD000294801F03CFD4FF400020321264801F0A3
:101AE00074FD4FF400120321234801F078FD032117
:101AF000214801F07EFD03211F4801F08CFD0322E7
:101B000011461D4801F090FD03211B4801F07AFDAC
:101B10000321194801F092FD19491A4A0A604FF44D
:101B200000779B234F60112033602146FFF776FE3C
:101B3000002886D1104C20220321204601F0E2FC2F
:101B40000028F8D0104E40F22A7540F22A2132685F
:101B50000192019F2F42FAD0019B0B427FF471AF9B
:101B6000019C14F4A06FF2D06CE700BF4C51000848
:101B7000E84500202C2C014000640240802C0140EC
:101B8000242C0140009F2400342C0140F8B5054668
:101B90000E4617460024A74205EB442105D9A0199B
:101BA000FFF742FF10B10134F5E70120F8BD000056
:101BB000014801F02BBC00BF5C530008704701F0E6
:101BC000D3BD000008B5064801F06CFF042001F009
:101BD00071FF01F07BFFBDE8084001F087BF00BF47
:101BE0004090020008B501F079FFBDE8084001F01F
:101BF00085BF000038B504460D460748002101F0B6
:101C0000A4FA034630B1054A2946204600F026FED4
:101C1000002038BD0120FCE71C480020BF5200080E
:101C20002DE9F043804689B00E4617462B492C48D3
:101C300001221D4601F096F948B12A4A034610993F
:101C4000284600F00BFE002009B0BDE8F083012219
:101C50002549264801F0AAF910B10346244AEEE7C7
:101C600002A9214801F0D8FA10B10346214AE6E75B
:101C7000029B1E48A3F1100131604FF4806101F016
:101C800064FA034608B11C4AD9E7202201AB414659
:101C9000164801F0CCF9024610B9019C202C02D064
:101CA0001346164ACBE73168104801F04EFA034656
:101CB00008B1134AC3E701AB102239460B4801F0C3
:101CC000B6F9034610B9019E102E01D00D4AB6E7B1
:101CD00010992846FFF78EFFB6E700BF2051000895
:101CE000F4450020A4510008C05100081C48002001
:101CF000CB510008EB5100080B5200082F5200088E
:101D0000565200087B5200082DE9F341DFF840806D
:101D100005460C4616461F46ACB101AB2246294685
:101D2000404601F084F9034608B9019A42B9074ACE
:101D30003946304600F092FD002002B0BDE8F08147
:101D40001544A41AE8E70120F7E700BF9F520008F6
:101D50001C4800204B689A42A8BF1A4630B58AB189
:101D60000D68854208D0841805F1FF3C10F8013B4E
:101D70000CF8013F8442F9D80D684C681544A21A4A
:101D80000D604A604B68002B05DD7F2BCCBF0868D7
:101D900001F1080030BD0020FCE700000000000059
:101DA0002DE9F04FADF50F7D1D46DDF860B20090D6
:101DB00000230591144616460493A9072A461BD111
:101DC00006F18007154652F8043BD94383F02530CD
:101DD00001F08038A0F1013111EA080F0CD1A3F114
:101DE000013919EA080F0AD1009810B1391B0329EB
:101DF00002DD44F8043BE5E72A78252A19D02F783C
:101E0000002F00F0F384009B73B1A21B7E2A0BDD30
:101E1000049C059914443046009E0494B04706463D
:101E20000446002800F0DB8415F8010B2070013413
:101E3000C3E7681C00258146013099F80020272A55
:101E400034D008D8232A2ED0242A32D0202A07D1F1
:101E500045F00405EFE72D2A1FD017D82B2A1FD0F5
:101E600099F800102A2934D0002706974FF00A0865
:101E7000CA4619F801CBACF13002092A30D8069BCA
:101E800008FB03CAAAF130000690F1E7302A1CD003
:101E90005F2AE5D145F48065CDE745F00105CAE745
:101EA00045F00205C7E745F00805C4E745F04005E1
:101EB000C1E7EB0506D52F054CBF45F4805545F429
:101EC0000065B8E745F48075B5E745F01005814633
:101ED000C6E7DBF80010069109F1010A0BF1040BCB
:101EE0009AF800702E2F46D19AF801302A2B12D082
:101EF00000200AF1010801900A27C24618F801CB18
:101F0000ACF1300109290DD8019A07FB02C9A9F1EA
:101F100030030193F1E7DBF8000001900AF1020AB7
:101F20000BF1040B9AF800106A293CD027D84929F4
:101F30003CD0682932D09AF80030642B00F0068239
:101F400078D8472B07D045D8422B00F0E081452BAD
:101F500001D0412B44D10BF107024FF0000822F0D1
:101F6000070C0CF1080B8DF828808DF830804FF0AD
:101F70000809AC4F5BE04FF0FF320192D2E77429C1
:101F80000ED07A290CD06C29D5D19AF801006C2892
:101F900006D145F020050AF1020ACCE745F40075A8
:101FA0000AF1010AC7E745F02005F9E79AF8017040
:101FB000362F08D19AF80230342BF1D145F02005A4
:101FC0000AF1030AB7E7332FEAD19AF80220322A3E
:101FD000E6D1F5E7612BBED014D8582B00F0A681CE
:101FE0004FF000088DF837328DF828808DF830805A
:101FF0004FF001090DF237274546CDF80480CDF8A2
:1020000018808AE0622B00F01381632BE8D1DBF8A3
:1020100000108DF837124FF000088DF828808DF8E9
:1020200030800BF1040B4FF001090DF23727CDF88A
:10203000048072E06F2B00F06C8113D8692B00F0E4
:10204000858102D8672B86D9CAE76E2BC8D1049B3D
:10205000DBF80050A01B184428600BF1040B0AF1B8
:102060000105AAE6732B1DD006D8702BB8D1082124
:1020700025F01005019104E0752B00F06781782BA5
:10208000AED1694A15F008001DBF43F20200ADF859
:102090002800107C8DF8280018BF8DF82A004FF416
:1020A0008863D5E0DBF80070604B002F08BF1F4647
:1020B0000BF10402BB465FEA8B70594605D09BF8D2
:1020C0000000E0B10BF1010BF5E70198002813DBEC
:1020D0000198CB1B834212D2C31A9B088B46002B5C
:1020E000EDD051F804CBACF1013828EA0C0919F015
:1020F000803FE4D1013BF1E74FF0FF33EEE7019B76
:10210000ABEB07090021994528BF99468DF82810A7
:102110008DF83010934601918846019A9DF8280069
:1021200006994A45B8BF4A4610448842ACBFC0EB46
:102130000000C0EB01000190A2EB090315F00100C3
:10214000029309D1EA0640F1EF81DDE901C262455F
:10215000B8BF6246CDE90102DDE90113D94200F0C2
:10216000CA82E80704D42023019A002A00F3DF8101
:102170000DF129019DF82820002A40F0118215F068
:1021800040014FEA1863069100F08582029828F01A
:102190007F4C8444591CBCFBF1F201FB12C0A3EB41
:1021A00000080299002900F32782B9F1000F40F0DE
:1021B000A5820DF131019DF83070002F40F0D182E1
:1021C000E9077FF54CAF019D002D7FF748AF4FF039
:1021D00020094FF02037009B002B00F0EA82019885
:1021E000A21BC2F180038342A8BF03460199CA1A09
:1021F0000192002B40F0DF82009B73B1A21B7E2A6C
:102200000BDD049C059914443046009E0494B047AD
:102210000646002800F0E182044601980028DAD141
:102220001DE700BFE652000876040020E1520008D6
:10223000B94A15F008071DBF43F20207ADF8287030
:10224000D77A8DF8287018BF8DF82A704FF4C073B4
:10225000A9066DD50BF1070020F0070CDCE900782A
:10226000CDE902780CF1080BDDE902014FF000081E
:1022700001438DF8308005D101998DF8288000291F
:1022800000F03A81A54F05F04001387807900DF530
:102290000E7E08914FEA132C0120029900FA0CF9E6
:1022A00009F1FF300840CCF12009105C0EF8010C58
:1022B00021FA0CF00399ACF1200801FA09F940EA7F
:1022C000090021FA08F821FA0CFC40EA0801CDE9DE
:1022D000021CDDE9020101430EF1FF3706D10DF5C5
:1022E0000E790199A9EB070989452ADA089860B1A6
:1022F000013383EA131111F00F0F06D107980EF87E
:10230000020C23F00F03AEF10207BE46C2E7844A77
:102310008FE715F0080716BF43F201078DF8287004
:10232000ADF828704FF44C737D4A91E77C4AA9E6DA
:10233000DBF800704FF00008CDE902780BF1040BD8
:1023400092E7190501F07068C844E6E6AF0653D578
:102350000BF1070121F0070BDBE900120BF1080775
:10236000752B0997CDE902120CD0002972F10003F8
:1023700008DADDE90223524263EB4303CDE902238D
:1023800045F08005654A05F04001107808904FF04F
:1023900000098EAF07915CA3D3E90023DDE90201B8
:1023A0008B4208BF8242A7F1080B37D258A3D3E96A
:1023B000002301F0BBFBDDE90201904654A3D3E901
:1023C000002301F0B3FBCDE90201079B002B45D1AF
:1023D000B8F1000F29D1DDE9022313434DD030239A
:1023E0005F45D8D00798013F20B1B9F1030F57D00E
:1023F00009F101093B70F3E7DBF800200BF104075A
:1024000010460021752B0997CDE90201BAD0002AA8
:10241000B8DA5042C117CDE90201B1E7002200232A
:10242000DDF80880CDE90223CFE764203D4AB8FB00
:10243000F0FC00FB1C83E04632F8131027F8021D65
:10244000C6E7B9F1030F09F1010C07F1FF3709D114
:10245000089939700BF1FF3B4FF00009B8F1000FFC
:10246000EFD1B8E70A22B8FBF2F902FB198808F1AC
:1024700030003870C846E146F0E73A78302A04D197
:102480000DF50E7C674512D001374FF00008280685
:102490008DF830800DD542F60150ADF8280012E0DD
:1024A000089939700BF1FF3B4FF0000998E78EAFA8
:1024B000EBE7690702D542F20100EEE715F00203EF
:1024C00017D18DF828308EA9019ADDF824B0B1EB30
:1024D000070904BF30214FF0010922EAE27308BF67
:1024E00007F8011C09F1407808BF07F1FF37019395
:1024F00013E642F60130D0E7DDF804808EAFC14626
:102500000BE600BFAFF30080FFE0F5050000000020
:1025100000E1F50500000000760400209C04002086
:10252000890400209D04002025F0400514E6009851
:1025300008B30198A11BC1F180028242A8BF0246E4
:102540000199881A0190C2B9009A002A3FF40CAE92
:10255000A21B7E2A7FF708AE049C059906931444BB
:102560003046009E0494B0470646002800F03581AE
:102570000446069BF8E5019AE2E7A10708D004F8B3
:10258000013B013ADFE74FF0203144F8041B043AE5
:10259000032AF8DC22449442D6D004F8013BFAE73F
:1025A0000098134628B1A31BC3F180039342A8BF30
:1025B0001346D21AC8188DF8282004F1FF3C069063
:1025C0000698814213D100991C4471B1A21B7E2A46
:1025D0000BDD049C059914443046009E0494B047DA
:1025E0000646002800F0F98004460699C2E511F875
:1025F000012B0CF8012FE3E7009919B30298A21BF5
:10260000C2F180028242A8BF02460299881A069946
:102610000290F9B9C2B9009A002A3FF4C2ADA21BD8
:102620007E2A7FF7BEAD049C05990793144430467B
:10263000009E0494B0470646002800F0CE80044671
:10264000079BAEE5029AE0E7A00708D14FF03030D3
:10265000032A0ADC6E49224491F800C00DE04FF0D5
:10266000300004F8010B013AD4E744F8040B043AB3
:10267000EEE704F801CC4FF000089442CBD0069866
:10268000013418B19845F4D008F101084FF0300139
:1026900004F8011CF1E7DDF8188082E50098134684
:1026A00028B1A11BC1F180039342A8BF1346D21ADF
:1026B0008DF82820611E0CEB0308C44516D11C447C
:1026C000009B6BB1A21B7E2A0ADD049C0599144471
:1026D0003046009E0494B047064600287DD004464C
:1026E000C4469DF82820002AD8D15EE51CF8010BCD
:1026F00001F8010FE1E70DF1290CF2E700984B46D4
:1027000028B1A31BC3F180034B45A8BF4B46A9EBDF
:102710000309032B3A4619DC04F1FF381F44BA427F
:102720001AD100991C4400293FF43FADA21B7E2A18
:102730007FF73BAD049C059914443046009E0494F9
:10274000B0470646002848D004462EE557F8040B4B
:1027500044F8040B043BDCE712F801CB08F801CF86
:10276000DDE700983A4628B1A21BC2F18002BA42C6
:10277000A8BF3A46BB1A8DF8303004F1FF388F18E5
:10278000B94211D10099144461B1A21B7E2A09DD1E
:10279000049C059914443046009E0494B0470646B4
:1027A000D8B10446394606E511F801CB08F801CF47
:1027B000E6E7019B1AE5A20706D004F8019B013B5E
:1027C00017E544F8047B043B032BFADC23449C42CA
:1027D0003FF412AD04F8019BF9E700242646049D5E
:1027E000A01B28440DF50F7DBDE8F08F009D0DB9AD
:1027F0002570F4E7A21B002AF1DD0499009F114423
:10280000049130460599B84706460446E7E700BFFD
:102810009C040020F0B50546A5B016461F460C46A0
:10282000B1B10022CDE9020102A91046FFF792FAE8
:1028300033460246009702A90748FFF7B1FA029B08
:10284000581B8442D8BF04F1FF3000222A540446AA
:10285000204625B0F0BD00BF551D00080CB407B5DB
:1028600004AB53F8042B0193FFF7D4FF03B05DF8DA
:1028700004EB02B0704742884378007843EA0221B3
:1028800040EA0120704710B5024410F8013B11F8EE
:10289000014B9042A3EB040301D0002BF5D0184666
:1028A00010BDC36802399A1E8A4283BF4289006AFA
:1028B00001FB020000207047026810B552B11146BA
:1028C0000B4611F8014B202C0CD93A2CF8D1511C95
:1028D0008B4202D04FF0FF3005E01278302AF9D158
:1028E00001330360002010BD38B50D46044618B909
:1028F000092000242C6038BD0368002BF8D01A781A
:10290000002AF5D08188D8888142F1D15878FEF725
:10291000F9F810F00100EBD12468EBE7CA7E8B7E5A
:10292000032843EA022C01BF487D0A7D42EA0022C7
:102930004CEA024C60467047F8B5C56900230C4666
:10294000681E19462E2610F8012F202A01F10101D8
:102950000AD0052A08BFE522092902BFE71801337A
:102960007E72E71801337A720B29ECD123440027D9
:102970005F72E87A207205F11C00FFF77CFF20608F
:1029800005F11600FFF777FF050CE080A580F8BD84
:1029900038B5436A8B4205460C460ED00A460123E1
:1029A00000F128014078FEF7B5F8002816BF4FF077
:1029B000FF34002001206C6238BD0020FCE70000DD
:1029C00000234FF0FF3210B5C37042620446FFF798
:1029D000DFFF28BB94F8270294F826124AF6552305
:1029E00041EA002C9C451DD194F82820E92A05D005
:1029F000A06A0E4B00F0FF11994215D103220C4939
:102A000004F15E00FFF73FFF48B10522094904F1D8
:102A10007A00FFF738FF002814BF0220002010BD05
:102A20000420FCE70320FAE70220F8E7EB0090001F
:102A3000EF520008F35200082DE9FF4700230B6016
:102A40000E46FFF739FF051EC0F2BA80774850F8EE
:102A50002540002C00F0B6803460217851B9002266
:102A6000E8B222706070FEF73FF810F001060AD05D
:102A7000032005E06078FEF745F810F00100EED184
:102A800004B0BDE8F08731462046FFF799FF0228E1
:102A90007DD104F5F77717F8040C10B13846FFF72D
:102AA000EAFE4DF826000136042E07F11007F2D198
:102AB00000255DF82560002E61D031462046FFF7E5
:102AC0007FFF01285CD894F8340094F8338048EAFA
:102AD0000029B9F5007F5ED194F83FA094F83E300C
:102AE00053EA0A2704D104F14C00FFF7C4FE07465D
:102AF00094F838A027610AF1FF31012984F802A077
:102B000049D894F835901FFA89F26281002A42D0A0
:102B100009F1FF3515EA090F3DD194F83A0094F810
:102B2000393043EA002818F00F0FA4F8088032D19A
:102B300094F83C1094F83B2052EA012003D104F1B0
:102B40004800FFF798FE94F8375094F836C05CEAD6
:102B5000052320D007FB0AFE03EB181272448242C1
:102B600019D8801AB0FBF9F5ADB131498D4212D8B0
:102B70004FF6F570854227D94FF0030A2CE0032069
:102B80000135042D95D1042805D1012078E70428CA
:102B9000FBD0012897D90D2072E7B8F1000FFAD0C9
:102BA000BAF1020F4FEA450618BF7619734418BFF1
:102BB00005F00105E3610CBF354605EB560525E040
:102BC0000B205DE70C205BE740F6F5718D4294BF6A
:102BD0004FF0010A4FF0020A334402356661BAF140
:102BE000030F1644E560A3612662D6D194F8539092
:102BF00094F852C05CEA0923CDD1B8F1000FCAD1D4
:102C000004F15400FFF737FEAD00E06105F2FF1359
:102C1000B7EB532FBFD3074F84F800A03A88013297
:102C200095B23D80E58000202AE700BF3C4A0020A5
:102C3000F5FFFF0F404A00200129F8B505460C4674
:102C400052D9C36899424FD20178022929D0032969
:102C500038D0012948D1826904EB540602EB562191
:102C6000FFF796FE10B14FF0FF30F8BDC6F3080035
:102C70002844AB69771C03EB572190F8286028465D
:102C8000FFF786FE0028EED1C7F3080C6544E30782
:102C900095F8285046EA05204CBF0009C0F30B0008
:102CA000E3E7826902EB1421FFF772FE0028DAD114
:102CB000670007F4FF7028352E182D5C737845EAFD
:102CC0000320D2E7816901EBD411FFF761FE0028F0
:102CD000C9D1A40004F4FE7E05F128007044FFF77A
:102CE000CAFD20F07040C0E70120BEE7F8B5836957
:102CF000044693B106692036B6F5001F0DD2C6F31F
:102D00000807056807BB41690133836139B929891F
:102D1000B1EB561F18D80026A661042019E0688977
:102D2000421E12EA56230FD12846FFF785FF0128DD
:102D300001460FD9431C0FD0EB689842EBD260617B
:102D40002846FFF7AEFDA06128353D442661E561C8
:102D50000020F8BD0220FCE70120FAE770B5856885
:102D6000046800230646036195B92178022901D938
:102D7000E06970B9208908B9022070BDE169B161CC
:102D8000B2697561002AF7D02834F4610020F4E7B5
:102D900028466289054662B929463068FFF74CFF2C
:102DA000431C05460BD00128E6D9E3689842F3D3CB
:102DB000E2E701462046FFF774FDB061E0E701203D
:102DC000DBE700002DE9F047D0F8008005460E460D
:102DD00011F8013B2F2BFAD05C2BF8D00020A86013
:102DE00031781F2953D905F1200705F12B093C46FD
:102DF000202204F8012B4C45FBD100221046082468
:102E0000335C202B00F101010BD92F2B01D05C2B5F
:102E100045D17018811B10F8014B2F2CFAD05C2C77
:102E2000F8D00E44002A51D095F82020D5F800A003
:102E3000E52A04BF052285F82020212B34BF042376
:102E4000002385F82B302846FFF788FF044600282A
:102E500058D1A9695046FFF79BFD0446002851D17F
:102E6000E8690378002B4CD0C17A01F03F02AA71C7
:102E700090F80BE05FEA0E7105D40B223946FFF79C
:102E800002FD00283ED02846FFF730FFDEE780260F
:102E900085F82B602846BDE8F047FFF75FBF2E2B73
:102EA0004FD0944212D9802B08D99F2B10D903F10F
:102EB000200C5FFA8CFABAF11C0F09D9DFF8A0C018
:102EC0001CF8010F002841D08342F9D1062422E0EA
:102ED000715C3F2900F10200F8D97E2904D981F004
:102EE000800ABAF17C0FF1D804F1FF3C6245EDD2C3
:102EF00002F1010ABB5407F80A10023201460846E3
:102F00007EE7042495F82B0044B1042C03D110F083
:102F1000040F08BF05242046BDE8F0874207FAD415
:102F2000AC79E3060BD52B6998F80000C3F3080CC5
:102F300008F128016144FFF7F1FCA86057E7052478
:102F4000E9E70B2CC2D008220B24D8E7A3F16100DB
:102F5000192801D8203BDBB2BB540132CFE700BFB8
:102F6000F85200081FB5CDE9001004A8144640F837
:102F7000041DFFF7A1FC002812DB0B4B53F82020A7
:102F80000AB100211170019A0AB10021117043F8B1
:102F900020203CB101A96846FFF74EFD04B010BDEA
:102FA0000B20FBE72046F9E73C4A00202DE9F041E1
:102FB0008EB0164601910546002836D002A901A818
:102FC000FFF73AFD044658BB0EA8029B40F82C3D83
:102FD0000199FFF7F7FE044610BB9DF93700002862
:102FE0001DDB9DF81210CB061DD4029FDDF8288052
:102FF00038784146FFF792FCA86008F11C00FFF703
:103000003AFC06F00106FA88E8602F60AA802E7468
:103010006C74EC616C6120460EB0BDE8F081062452
:1030200000232B60F7E70424FAE70924F3E72DE9EE
:10303000F04F9B4685B000238946CBF8003003A9AA
:1030400004461646FFF750FC054608BB657CFDB9F3
:10305000207CC10777D5E1686769CF1BB74204F1CF
:10306000200228BF3746009297B16669C6F308036D
:10307000002B54D10398B0F80A8008F1FF3111EA0F
:10308000562315D146B9A06801280CD802256574CD
:10309000284605B0BDE8F08FA16920680193FFF7CD
:1030A000CBFD019BF0E7421C01D10125EFE7A061B8
:1030B000DDF80CA0A16901935046FFF7F2FB002850
:1030C000E4D0019B7E0A03EB00081AD0BAF80A008C
:1030D0009919814288BFC61A3346424649469AF832
:1030E0000100FDF717FD0028DFD17602DBF8003084
:1030F00062693344BF1BB1441644CBF800306661AB
:10310000B2E7E269424508D00123424600999AF8A5
:103110000100FDF7FFFC0028C7D1C4F81C806069DE
:103120000099C0F30803C3F50076BE4228BF3E46AF
:103130000B4409F1FF3C9A1913F801EB0CF801EF6D
:103140009342F9D1D2E70725A2E7F7B50E4601A9C8
:103150000446FFF7C9FB054640B9657C35B9E06810
:1031600063696561864228BF064616B9284603B0E2
:10317000F0BD019A57897F020BB3581E711EB0FB38
:10318000F7F2B1FBF7F3934219D379420840A169F2
:10319000606100293ED100266369C3F30802002A5A
:1031A000E4D0E169B142E1D001980123324604F153
:1031B00020014078FDF7AEFCF8B9E661D6E7A168DA
:1031C000A1610029D2D0BE4260690CD83044C6F358
:1031D00008076061002FDED00198FFF762FBA8B1FD
:1031E00000EB5626D8E7384460612068FFF724FDDD
:1031F000431CA6EB0706014602D101256574B5E71D
:10320000012803D9019BDA68824201D80225F5E73B
:10321000A061D8E7361AD6E730B58FB00D460190D9
:1032200003A901A8FFF708FC044688B9019903A87F
:10323000FFF7C8FD044658B99DF93730002B0ADB6B
:1032400035B16872099818B1294603A8FFF774FBD5
:1032500020460FB030BD0624FAE70000062822D829
:10326000DFE800F004171C090E1315000F4B186857
:10327000C0F3406070470D4B1868C0F34040704782
:103280000A4B1868C0F340007047094BF9E7094B37
:10329000F7E7064B1868C0F340707047034B186897
:1032A000C0F3C06070470020704700BF0038024084
:1032B000703802407438024008B502461046FFF7E5
:1032C000CDFF0028FAD008BD06280AD8DFE800F0B4
:1032D00004181D0A0F1416000E4A136843F0807379
:1032E000136070470B4A136843F48033F8E7094AC8
:1032F000136843F00103F3E7074AF9E7074AF7E7E2
:10330000044A136843F08053EAE7024A136843F023
:103310008063E5E7003802407038024074380240AC
:1033200006280AD8DFE800F004181D0A0F1416005A
:103330000E4A136823F08073136070470B4A1368BA
:1033400023F48033F8E7094A136823F00103F3E715
:10335000074AF9E7074AF7E7044A136823F080535E
:10336000EAE7024A136823F08063E5E70038024089
:103370007038024074380240034A136823F0030394
:1033800018431060704700BF08380240034A1368B2
:1033900023F4604343EA403010607047083802402D
:1033A000034A136823F4E05343EA80201060704717
:1033B00008380240034A136823F0F00343EA001080
:1033C00010607047083802401B0603F0706300F07D
:1033D0003F0043F48003034347F6C07000EA8111C5
:1033E0000B435108009A0139022A4FEA014138BFC4
:1033F000022201F44031120702F0E0420B43134372
:10340000014A1360704700BF0438024037B50446D4
:103410000420FFF759FF0420FFF74EFF0020FFF7BD
:10342000ABFF0320FFF750FF0320FFF745FFE07BD2
:10343000002835D100F06AFB207BFFF7BBFF607BE3
:10344000FFF7AEFFA07BFFF7A1FFA5796188637945
:10345000227920780095FFF7B7FF124A136843F0EE
:10346000807313600020FFF727FFA06800F018FAB0
:103470000220FFF781FF0C4A1368C3F38103022B7C
:10348000FAD10A4B22691A60094B62691A60A26973
:10349000084B04201A6003B0BDE83040FFF740BF7E
:1034A0000120C7E7003802400838024068050020C4
:1034B0006C05002070050020182313FB010310B5D4
:1034C0001A6922F001021A6100221A619A615A6196
:1034D000DA611A6221225A62C1F34002062301F026
:1034E0000104120113FB042203294FF03D0303FAE8
:1034F00002F395BF8268C2681343134394BF83608D
:10350000C36010BDC1F3400330B51C0101F00105DB
:10351000062313FB0543032902FA03F294BF036851
:1035200043681A4214BF0120002030BD10B510308E
:10353000182404FB0101802A0B680ABF23F48023AE
:1035400023F0C00323F4E07313430B6010BD182372
:10355000103003FB01010B6823F440330B600B6850
:103560001A430A6070471823103003FB01010B68EF
:1035700023F4C0430B600B681A430A60704718239A
:10358000103003FB01010B6823F4C0530B600B6880
:103590001A430A6070471823103003FB01010B68BF
:1035A00043F480630B6070471823103003FB010164
:1035B0000B6823F400730B6070471823103003FB73
:1035C00001010B681A430A6070471823103003FB8F
:1035D00001010B6823F0C0731A430A607047182377
:1035E000103003FB01010B6823F4C0031A430A6087
:1035F00070471823103003FB01010B6823F480236C
:103600000B6070471823103003FB01010B6843F077
:1036100020030B6070471823243003FB01010B6863
:1036200043F004030B6070471823243003FB0101AF
:103630000B6823F003031A430A6070471823103005
:1036400003FB01010B6843F001030B607047182373
:1036500003FB01010B69DB0758BF8A617047182320
:1036600003FB01010B69D80704D503F44023B3F52C
:10367000402F00D1CA6170471430182303FB0101A9
:103680000A60704781617047090481617047006971
:10369000084070472DE9F0410568C46800264FF0E6
:1036A000030C43FA06F7FF070FD577000CFA07FE65
:1036B0006FEA0E0E01FA07F80EEA05050EEA040499
:1036C00002FA07F748EA05053C430136102EE8D117
:1036D0000560C460BDE8F081012941680CBF194351
:1036E0009943F0B5416081680024032643FA04F54C
:1036F000ED0707D5650006FA05F721EA070102FA8A
:1037000005F529430134102CF0D18160F0BDF0B5EE
:10371000076A466A00234FF00F0E42FA03F4E507EA
:1037200007D59D000EFA05F427EA040701FA05F50E
:103730002F430133082BF0D100234FF00F0E03F17C
:10374000080442FA04F4E40707D59C000EFA04F5D5
:1037500026EA050601FA04F426430133082BEED1CC
:1037600007624662F0BD0000024B4CF6CC421A6084
:10377000704700BF00300040154B984217D008D862
:10378000A3F57843984216D003F58063984215D08C
:103790007047104B984214D003F58063984213D0C1
:1037A000A3F50053984212D140F28D4001E040F25F
:1037B0008C4000F009B940F20E40FAE740F20F40A9
:1037C000F7E740F29440F4E740F29540F1E77047A4
:1037D0000030014000500140036843F040030360A3
:1037E000704783689B07FCD5C160704770B5059C26
:1037F000049E056844F0040434431C4314434368A6
:1038000005F441550C432C4343F00403436004602A
:10381000002070BD084A094B10B520F48064944222
:103820001B6804BF064B1B6801EB43034900B3FB55
:10383000F1F3836010BD00BF001001406C05002053
:1038400070050020C36808290CBF23F4805343F49B
:103850008053C3607047036923F4405319430161E7
:103860007047C36823F4C0631943C1607047C368DD
:1038700023F00C031943C1607047436923F440737C
:10388000194341617047C36843F40053C3607047F4
:10389000C1F308014160704703681B06FCD57047FF
:1038A000034A136823F0070318431060704700BFF2
:1038B000003C0240054A136843F000431360044B88
:1038C000044A1A6002F188321A607047103C0240C4
:1038D000043C024023016745024A136843F0004359
:1038E00013607047103C0240024A1368DB03FCD4AB
:1038F000704700BF0C3C0240044B1A6822F440722F
:103900001A601A6842EA002018607047103C0240B2
:1039100070B50A4C0E460546FFF7E6FF0220FFF79A
:10392000EBFF236843F0010323602E60FFF7DCFF09
:10393000236823F00103236070BD00BF103C0240E8
:1039400038B50C460546FFF7CFFF20460F4CFFF772
:10395000D3FF236823F0F80323602368ED00EDB262
:103960001D432560236843F002032360236843F46A
:1039700080332360FFF7B8FF236823F0020323603E
:10398000236823F0F803236038BD00BF103C0240D9
:10399000430903F1804303F50E3300F01F02196859
:1039A00001209040084318607047430903F18043A9
:1039B00003F50E3300F01F001A68012101FA00F030
:1039C00022EA000018607047430903F1804303F5C1
:1039D0000E3300F01F021968012090400143196066
:1039E0001A6822EA000018607047430903F1804317
:1039F00003F50E3300F01F001A68012101FA00F0F0
:103A000022EA000018607047FEE770471A4C1B4915
:103A10001B480022531883421AD31A4A00219342AA
:103A20001AD3194A194C1368194D43F400731360E3
:103A3000536F43F470035367AC4210D3154C164DCB
:103A4000AC4210D3FCF726FE144C154DAC420ED3FD
:103A5000135953500432DDE719600433DFE754F89B
:103A6000043B9847E8E754F8043B9847E8E754F8E4
:103A7000043B9847EAE700BF2C56000800000020EE
:103A8000D8050020484A002014ED00E078530008D3
:103A900078530008785300087853000878530008DA
:103AA00078530008024B20F07F401860704700BF39
:103AB00014E000E0044A136800F0040023F004035B
:103AC00003431360704700BF10E000E0024A136830
:103AD00043F002031360704710E000E0024A1368ED
:103AE00023F002031360704710E000E0024A1368FD
:103AF00043F001031360704710E000E0024A1368CE
:103B000023F001031360704710E000E028B9064A73
:103B1000136843F48043136070470128FCD1024AC4
:103B2000136803F48043F6E70070004053B94AB9C4
:103B3000002908BF00281CBF4FF0FF314FF0FF30B5
:103B400001F0F8B8ADF1080C6DE904CE00F006F80C
:103B5000DDF804E0DDE9022304B070472DE9F04709
:103B6000089E04468846002B4BD18A42154667D9E9
:103B7000B2FA82F24AB1C2F1200701FA02F320FA46
:103B800007F7954047EA030894404FEA154E230C87
:103B9000B8FBFEF71FFA85FC0EFB178843EA0843C3
:103BA00007FB0CF1994209D9EB1807F1FF3080F0BF
:103BB0001B81994240F21881023F2B445B1AA4B248
:103BC000B3FBFEF00EFB103344EA034400FB0CFC95
:103BD000A44509D92C1900F1FF3380F00781A445D1
:103BE00040F2048102382C4440EA0740A4EB0C0464
:103BF00000271EB1D4400023C6E900433946BDE882
:103C0000F0878B4209D9002E00F0EB800027C6E92F
:103C1000000138463946BDE8F087B3FA83F7002F34
:103C200047D18B4202D3824200F2FA80841A61EBC0
:103C3000030301209846002EE0D0C6E90048DDE7E6
:103C400002B9FFDEB2FA82F2002A40F08F80491BEF
:103C50004FEA154E1FFA85F80127B1FBFEFC230C35
:103C60000EFB1C1143EA014308FB0CF1994207D9F2
:103C7000EB180CF1FF3002D2994200F2CD8084465D
:103C8000591AA3B2B1FBFEF00EFB101443EA044430
:103C900008FB00F8A04507D92C1900F1FF3302D228
:103CA000A04500F2B6801846A4EB080440EA0C4098
:103CB0009FE7C7F1200CBB4022FA0CFE4EEA030E30
:103CC00001FA07F420FA0CF521FA0CF34FEA1E482A
:103CD0002543B3FBF8F92C0C08FB19331FFA8EFAB5
:103CE00044EA034309FB0AF49C4202FA07F200FA91
:103CF00007F10BD91EEB030309F1FF3080F0878039
:103D00009C4240F28480A9F1020973441B1BADB2AE
:103D1000B3FBF8F008FB103345EA034400FB0AFA52
:103D2000A24508D91EEB040400F1FF336BD2A24573
:103D300069D90238744440EA0940A0FB0289A4EB27
:103D40000A044C45C2464B4654D351D0002E69D08C
:103D5000B1EB0A0564EB030404FA0CFCFD40FC40E3
:103D60004CEA0505C6E90054002747E7C2F12003E5
:103D700020FA03F7954001FA02F021FA03F34FEA23
:103D8000154E3843010CB3FBFEF71FFA85F80EFB06
:103D9000173341EA034107FB08F38B4204FA02F4AC
:103DA00007D9691807F1FF3C2FD28B422DD9023F6A
:103DB0002944CB1A81B2B3FBFEF00EFB103341EA6B
:103DC000034100FB08F38B4207D9691800F1FF3C5F
:103DD00017D28B4215D902382944C91A40EA07473D
:103DE0003BE73746304609E70746E7E61846FBE675
:103DF0004145ABD2B8EB020A69EB0E02013813461B
:103E0000A4E76046E9E7184695E76746D1E78146AB
:103E10007CE702382C4447E7ACF1020C2B442FE737
:103E2000384608E73746E9E603685A004CBF43F0D6
:103E3000004323F000431844704700BF61B32DE9ED
:103E4000F84F01F1FF3A90460646D146002707EBAE
:103E5000090404EBD4746410E50071190846FFF7F7
:103E6000E3FFA245834605F10800304409D0FFF77F
:103E7000DBFFC34500F1FF3005D8404509D2671C80
:103E8000E5E7C34505D9A74202D004F1FF39DEE7D3
:103E900000210846BDE8F88F08467047012807D082
:103EA000022807D0044B00280CBF1846002070479A
:103EB0000248704702487047894500088D45000850
:103EC0009145000830B5254B83B004468D1E4BB399
:103ED00001A92846AFF30080F0B101992A46FFF707
:103EE000ADFF0146C0B1FFF79FFF4B68A064012BF7
:103EF0002ED0002B01F1040026DBFFF795FF0023F5
:103F0000C4E913030368002B12DBFFF78DFF0023C6
:103F10002061184603B030BD0023236109231846F1
:103F200003B030BD0E490F48091AC9100191D5E7F9
:103F3000C3F30360FFF7B2FF002814BF0023092377
:103F40002061184603B030BD0123C4E91303D9E74B
:103F5000002323610523184603B030BD0000000094
:103F60002C560008145400080368DA0710B50446FC
:103F700006D49B0700F1480009D500F05FFC2368D8
:103F8000590709D51A070ED5DB0613D510BD00F069
:103F90004DFC23685907F5D404F1D00000F056FC1D
:103FA00023681A07F0D404F5A87000F057FC2368C2
:103FB000DB06EBD404F5E870BDE8104000F092BCDD
:103FC000036803B103441846704700BF09207047D7
:103FD000704700BF70B504460D4608E02B6C636166
:103FE0002A462369214601209847082808D1296CD0
:103FF0002046FFF767FF06460028EFD000F09CFE42
:104000000728FBD13046296CFFF7E2FF281D00F09E
:1040100001FC00BF2DE9F0470C1D054617460FCCEB
:10402000ADF5727D03AE0FC60FCC0FC60FCC0FC619
:1040300094E80F0002ACD5F80C80D5F8189086E80B
:104040000F000023236021E0236C6B614FF4F072BA
:1040500021467AA800F086FE2B697AAA29463046C6
:104060009847889BCDE900498246636431462B46D8
:104070002A460120C0470746F8B94FF4F0727AA9E2
:10408000204600F06FFEBAF1080F1CD1216C2846C3
:10409000FFF718FF002F08BF0926074618BF0A269A
:1040A0000028D1D0A36B46F01001CDE900492A4683
:1040B000636401202B46C04700B1092738460DF53F
:1040C000727DBDE8F087BAF1070FF6D13846216C52
:1040D000FFF77EFF03A800F09DFB00BF406C704718
:1040E000F0B5CB6B0B640D1D0F4606460FCDF9B036
:1040F00001AC0FC40FCD0FC40FCD0FC495E80F0056
:104100004FF0FF3584E80F00009506E033696A46FA
:10411000314698470828044608D110993046FFF7E1
:10412000D1FE0028F2D0092079B0F0BD6846FFF733
:104130001BFF062CF7D139463046FFF74BFF00BF77
:1041400030B4DD6BC160826119461D64002230BC51
:1041500060E700BF70B5C66843690B64BEB9036908
:104160000A4604460D46014602209847072807D014
:10417000082803D129462046FFF72CFF00F0DCFD7C
:104180003046296CFFF724FF281D00F043FB012275
:10419000FFF740FF00F0D0FDC2681AB1CA6B0A6495
:1041A000002237E79CE700BF704700BF836813B168
:1041B0000146012018477047042907D8DFE801F0BD
:1041C0000308060808000BB90F2A03D9022070471C
:1041D0000120704700EB820218465368009A136072
:1041E000704700BF10B584B0002303AC0A460094AA
:1041F0001946FFF7E1FF039804B010BD042907D862
:10420000DFE801F00308060808000BB90F2A03D9FC
:10421000022070470120704700EB8200009A12686C
:1042200042601846704700BF10B584B004AC00234C
:1042300044F8042D0A4600941946FFF7DFFF04B046
:1042400010BD00BFF0B5D36B1364151D07460E46B5
:104250000FCDADF50F7D17AC0FC40FCD0FC40FCD33
:104260000FC495E80F004FF0FF3584E80F00169556
:1042700010E016A8FFF7D8FF314616A8B84716AACF
:10428000694678B9049B08209847052804460AD057
:10429000092807D026996846FFF714FE6A460C21C4
:1042A0000028E6D0092416A8FFF75EFE20460DF58B
:1042B0000F7DF0BD2DE9F04F0D46C96C89B00C1D86
:1042C000164600F0030B0A6806941F46002B68D0C0
:1042D000130CD9B212048DF81D30022304EB8104B3
:1042E00005928DF81C302B6DBBF1020F08BFAC6B33
:1042F00013F0010346D1019300F008030093D4F8B2
:104300000090B9F1000F00F0F380022F45D0B4F80F
:104310000090B4F802800434AB6C28F0010A0F213D
:1043200030469A44FFF75EFF824534D829F00103F6
:104330005344834294BF002001204FEA480808F00C
:10434000020809F0010948EA0908B8F1010F3AD05A
:1043500031D3B8F1020F1AD1236823F0004ABBF120
:10436000000F66D130B1009A002A6CD0BAF1000F6C
:1043700000F09080002B00DA04340AF1010304EB12
:104380008304BCE7304605A900F046FB78B109205C
:1043900009B0BDE8F08F0020CFE7D4F804800834DE
:1043A000BAE7120203230592ADF81C309BE7082000
:1043B00009B0BDE8F08FBBF1000F02D0002840F03B
:1043C000B48004349BE7BBF1000F18D1A8B1D4E945
:1043D0000023991C4FEAD272D9D005F1580101335C
:1043E000049100F0B580201DFFF7EAFD04AB014603
:1043F0002846AFF30080002867D108347FE70D21FD
:104400003046D5F82080FFF7EDFE8045F5D1AB6A48
:104410009C42F2D12046FFF707FD0F2102463046AD
:10442000FFF702FF30462A460021FFF7FDFE072076
:10443000AEE70D213046D5F82080FFF7D3FE80454A
:1044400032D0236896E7BAF1000F23D005F1580364
:1044500004F10408CDF808B0DDF800900397A346F6
:104460001C4602E05745B94640D040460494FFF749
:10447000A7FD04AB014600222846AFF3008009F1F6
:10448000010708F104080028ECD0D1455C46DDE9BD
:1044900002B7D6D130460D21FFF7A4FE049B286257
:1044A000C5E90934062073E7AB6A9C42C9D10422EE
:1044B0004FF00008A318C5E90AA8C5E90C23236832
:1044C00043454DDB0123019357E780460D213046DC
:1044D000FFF788FEB8F1020F28623ED12B46049AFE
:1044E00043F82C2F6B62AC62062051E75C46D1E7A3
:1044F00005A9304600F090FA00287FF448AF019BF0
:10450000002B3FF454AF0F213046FFF76BFE0E2116
:1045100002463046FFF788FE30461A4A0F21FFF761
:1045200083FE072009B0BDE8F08F2046FFF77CFC32
:1045300004340746AC632846AFF3008000283FF4FC
:1045400026AF30463A460F21FFF76EFE07201FE7E1
:1045500030460D21FFF746FE2862049B6B62C2E7DE
:104560000AF1010004EB8000FFF75EFC0F21024618
:104570003046FFF759FE30462A464146FFF754FEC3
:10458000072005E700000000002393E6012391E6E1
:1045900002238FE62DE9F0410546C4B0042906D870
:1045A000DFE801F04D2B05030900032B5FD002204B
:1045B00044B0BDE8F081002BF9D1102AF7D82B6860
:1045C000DC0600F1F48022AC2046019200F094F960
:1045D000A86B019A0023012606FA03F1114203D0C9
:1045E000016844F8231004300133042BF4D1A8638C
:1045F000204600F077F90020DAE7012B4FEA124657
:1046000097B252D0052BD2D106EB0708B8F1200F94
:10461000CDD80F2E40F29980B846002F40F0DB80B5
:10462000AA6BAA630F2E40F2BE80B8F1000F02D031
:1046300002A800F00BF9002044B0BDE8F081002B87
:10464000B5D1AC6B97B2281D012606FA03F13942A9
:1046500003F1010302D0216801600434102B00F142
:104660000400F2D112F40050E5D1AC63A0E7160CBF
:1046700097B2F319102B9AD82B681A075DD422AC85
:10468000204600F00DF904EBC601AB6B3FB103EB24
:10469000C702186841F8040B04339342F9D120464D
:1046A000AB6300F0DBF8002082E7F219102A3FF636
:1046B0007EAF0F2E3FF67BAF2A68D10708D528467C
:1046C00022F0030240F8482B019300F0B3F8019B5D
:1046D000019322AC204600F0ADF8A96B019B002F9E
:1046E00000F095807F0004EBC6044FF00008043C06
:1046F00001EB870251F8040B44F8040F9142F9D101
:10470000B8F1000F0FD002AC102E314638BF102187
:1047100004EBC101843902EBC80452F8040B41F8E0
:10472000040F9442F9D1012B7FF47BAF22AC043209
:10473000AA63204600F07AF87DE723F008032B6097
:1047400005F5A87000F0ACF899E7B8F1100F2A68E9
:1047500043D9D007A8F110080BD5284622F0010252
:1047600042F0020240F8482B019300F06BF82A68EF
:10477000019B510725D40F2E04D822A8019300F0E5
:1047800061F8019B019302AC204600F063F8C6F18A
:1047900010010029AA6B019BB6DD22AC4F0004EB8F
:1047A000C6041146A3E722A800F048F83DE723F02D
:1047B00010032B6005F5E870019200F09DF8019A56
:1047C00001E7284622F0040240F8D02B019300F0C4
:1047D00041F8019BCFE72A68CBE7D0070AD52846E6
:1047E00022F0010242F0020240F8482B019300F04F
:1047F00029F8019B019322AC204600F023F8B8462B
:10480000A96B019B002F7FF46DAF0A4609E70A46AA
:104810008DE700BF00F1340191E838009C46A646C0
:104820004CF8045D90E8FF0FE54600BD90EC210BCD
:10483000704700BF80EC210B704700BF90EC200B4D
:10484000704700BF80EC200B704700BFD0EC200BFE
:10485000704700BFC0EC200B704700BFF0EC0201B6
:10486000F0EC0211F0EC0221F0EC0231F0EC02412C
:10487000F0EC0251F0EC0261F0EC0271F0EC02811C
:10488000F0EC0291F0EC02A1F0EC02B1F0EC02C10C
:10489000F0EC02D1F0EC02E1F0EC02F1704700BF65
:1048A000E0EC0201E0EC0211E0EC0221E0EC02316C
:1048B000E0EC0241E0EC0251E0EC0261E0EC02715C
:1048C000E0EC0281E0EC0291E0EC02A1E0EC02B14C
:1048D000E0EC02C1E0EC02D1E0EC02E1E0EC02F13C
:1048E000704700BFB0FC0181B0FC0191B0FC01A198
:1048F000B0FC01B1704700BFA0FC0181A0FC019198
:10490000A0FC01A1A0FC01B1704700BFEC4600B5BE
:104910002DE900502DE9FF1F4FF000032DE90C0099
:1049200001A9FFF7DDFBDDF840E012B0704700BFE2
:10493000EC4600B52DE900502DE9FF1F4FF00003B4
:104940002DE90C0001A9FFF705FCDDF840E012B0ED
:10495000704700BFEC4600B52DE900502DE9FF1F60
:104960004FF000032DE90C0001A9FFF715FCDDF85D
:1049700040E012B0704700BFEC4600B52DE9005092
:104980002DE9FF1F4FF000032DE90C0001ABFFF7ED
:10499000D7FBDDF840E012B0704700BFEC4600B531
:1049A0002DE900502DE9FF1F4FF000032DE90C0009
:1049B00001AAFFF747FCDDF840E012B0704700BFE6
:1049C000027A82B9437AABB14268013B10B44372B8
:1049D00013680321141D01721A02446002605DF81D
:1049E000044B180E70470368013A02721A02026003
:1049F000180E7047B020704700B585B003AA002399
:104A0000009219460C22FFF7D7FB039805B05DF81A
:104A100004FB00BFF0E700BF2DE9F043054685B079
:104A20000E464FF000083046FFF7CAFFB028044694
:104A300000F0B180070620D500F0F003802B65D090
:104A4000902B36D0A02B78D0B02B47D0C02B00F0C5
:104A50008A8000F0F803D02B0BD100F0070201325E
:104A600042F40022052301212846FFF793FD002888
:104A7000D9D0092005B0BDE8F0830DF10C09002361
:104A800019468700CDF800900D222846FFF794FBC9
:104A9000FFB2039BCDF80090043760064CBFDF1BCC
:104AA000FF18002319460D2228460397FFF7A6FB9F
:104AB000B9E700F00D030D2BDBD003AF002300F0AE
:104AC0000F02194600972846FFF776FB0023009750
:104AD00019460D222846FFF791FBA4E7B1285FD0C5
:104AE000B22800F0CC80B3287ED000F0FC03B42BB9
:104AF000BFD000F007020132012342F40022194620
:104B00002846FFF747FD00288DD0B2E73046FFF773
:104B100057FF24020443B4F5004FAAD02401002318
:104B2000A2B219462846FFF735FD0028A1D114F49A
:104B3000004F18BF4FF0010875E7C24302F00703AA
:104B40004FF47F621A41010702F47F624FF00003C5
:104B500048BF42F4804219462846FFF71BFD002853
:104B60003FF461AF85E7C62851D0C7285AD000F07E
:104B7000F803C02B69D0C82875D0C9287FF479AF55
:104B80003046FFF71DFF020300F00F0002F4702211
:104B90000130024366E7B8F1000F14D0002069E746
:104BA0003046FFF70DFF00283FF463AF10F0F0032D
:104BB0007FF45FAF024619462846FFF7EBFC00285A
:104BC0003FF431AF55E703AC43460E224146009413
:104BD0002846FFF7F1FA0094284643460F22414643
:104BE000FFF70CFB404645E73046FFF7E9FE0103BF
:104BF00000F00F0001F47021421C01230A432846F3
:104C00001946FFF7C7FC00283FF40DAF31E73046E7
:104C1000FFF7D6FE010300F00F0001F47021421CE3
:104C20000323EBE73046FFF7CBFE024600283FF4B4
:104C300020AF10F0F0037FF41CAF04212846FFF7EB
:104C4000A9FC00283FF4EFAE13E700F00F02013299
:104C5000032342F4202219462846FFF79BFC002834
:104C60003FF4E1AE05E73046FFF7AAFE00F0F002A0
:104C700000F00F031032013343EA0232F2E6002360
:104C80000DF10C090D221946CDF800902846FFF7CA
:104C900093FA3046FFF794FE02064FF002070CD558
:104CA000039B00F07F00B840034430460393FFF7B6
:104CB00087FE030607F10707F2D4039BCDF80090A7
:104CC00000F07F0403F50172BC4000231444194630
:104CD0000D2228460394FFF791FAA4E610B5C36CA1
:104CE00084B05A6803208DF80C00DC798DF80D40F3
:104CF00012020833084601A901920293FFF78CFEC5
:104D000004B010BD08B5FFF785FE806C08BD00BF7C
:104D100008B5FFF77FFEC06CC37900EB8300083055
:104D200008BD00BF08B500F007F800BF08B5FFF7E1
:104D3000F9FF00BF704700BF08B5062000F04EF82D
:104D4000012000F077F830B50024A24201D1002004
:104D500007E0035D01340D1915F8015CAB42F4D096
:104D6000581B30BD10B5431E0A44914200D110BDFE
:104D700011F8014B03F8014FF7E702440346934251
:104D800000D1704703F8011BF9E71F2938B5044625
:104D90000D4604D9162303604FF0FF3038BD426C36
:104DA00012B152F821304BB9204600F031F82A46B2
:104DB00001462046BDE8384000F018B8012B0AD063
:104DC000591C03D1162303600120E7E7002442F8B1
:104DD0002540284698470020E0E70000024B0146A6
:104DE0001868FFF7D2BF00BF7405002038B5074C24
:104DF0000023054608461146236000F013F8431CC3
:104E000002D1236803B12B6038BD00BF444A0020A3
:104E100000F000B8024B58221A604FF0FF30704784
:104E2000444A0020024B58221A604FF0FF3070476E
:104E3000444A0020FEE700BF0000777269746520D5
:104E40007570646174653F20796573007772697469
:104E500065207570646174653F206E6F00636865DE
:104E6000636B696E67202E2E2E0063757272656EFD
:104E70007420696D6167653A2025730A006368656F
:104E8000636B696E6720666F72207570646174650C
:104E900020696D616765202E2E2E0A00666F756E83
:104EA000642075706461746520696D6167653A207E
:104EB00025730A0073697A653A20257A642062793D
:104EC0007465730A002530327800766572696679F8
:104ED000696E672075706461746520696D616765CE
:104EE000202E2E2E0A006E6F20757064617465206E
:104EF000696D61676520666F756E643A2025730A77
:104F000000766572696679696E6720696D616765AB
:104F1000202564252500636F6D7075746564206DB0
:104F2000643573756D3A200076616C696420696D33
:104F30006167650A00696E76616C696420696D61FC
:104F4000676520286D643573756D206D69736D61BB
:104F5000746368290A00696E76616C69642063680D
:104F600065636B73756D0077726974696E67207520
:104F7000706461746520696D61676520746F2030AD
:104F8000782530386C78202E2E2E0A0077726974BE
:104F9000696E6720696D6167652025642525006558
:104FA000726173696E6720736563746F7220256424
:104FB0002061742030782530386C78202E2E2E20F9
:104FC00000646F6E650A007772697465207375639B
:104FD0006365737366756C0A0076657269667969D4
:104FE0006E67207772697474656E20696D6167659C
:104FF000202E2E2E0A00766572696679696E67002A
:105000006661696C656420746F20777269746520CD
:1050100075706461746520696D6167653A202573F8
:105020000A007665726966792073756363657373C8
:1050300066756C0A007375636365737366756C00DF
:10504000766572696679206661696C656420286D91
:10505000643573756D206D69736D61746368290AB9
:105060000077726974696E6720696D616765206693
:1050700061696C656400707265737320656E636F3F
:1050800064657220746F2072657365742100626FAD
:105090006F746C6F616465722025642E25640063F3
:1050A000757272656E743A007570646174653A0069
:1050B0002573202825642E25642E25642900696E19
:1050C00076616C696420696D6167650000000008A5
:1050D000004000080080000800C00008000001082F
:1050E000000002080000040800000608000008088C
:1050F00000000A0800000C0800000E080A626F6F2A
:10510000746C6F616465722025642E25640A006CDE
:105110006F6164696E67202573202E2E2E0A0A0A9D
:10512000006469736B5F696E697469616C697A6543
:1051300028706472763D2564290A006361726420D8
:1051400073697A65203D20256C750A0041535345EB
:10515000525420696E202F55736572732F747575C4
:105160006C652F706572666F726D65722F737263F6
:105170002F617070732F626F6F746C6F61646572F2
:105180002F5364436172642E6370703A3239390A66
:10519000627566666572206E6F7420696E20535268
:1051A000414D0A006661696C656420746F206D6F03
:1051B000756E7420286572726F723A20256429001A
:1051C0005550444154452E444154006661696C6514
:1051D0006420746F206F70656E2066696C6520288E
:1051E0006572726F723A20256429006661696C6588
:1051F0006420746F20737461742066696C65202864
:105200006572726F723A20256429006661696C6567
:105210006420746F207365656B2076657273696FA7
:105220006E2028726573756C743A202564290066B7
:1052300061696C656420746F2072656164207665B5
:105240007273696F6E2074616720286572726F7265
:105250003A20256429006661696C656420746F20BA
:105260007365656B20636865636B73756D20287269
:105270006573756C743A20256429006661696C65F4
:105280006420746F207265616420636865636B736A
:10529000756D20286572726F723A20256429006648
:1052A00061696C656420746F20726561642064615B
:1052B000746120286572726F723A20256429006635
:1052C00061696C656420746F207365656B2073740D
:1052D0006172742028726573756C743A2025642994
:1052E000006E756C6C004E6F20666C6F61740046CA
:1052F000415400464154333200222A2B2C3A3B3C85
:105300003D3E3F5B5D7C7F000800600002020000C4
:105310000306000000050401006CDC02001BB7005E
:1053200000366E010800500104070000020600006C
:105330000004000000BD010580DE800200BD010503
:105340000800F0000205000003060000000504014B
:10535000000E270780C3C90100879303080050018E
:10536000020700000506000000050400007A030A99
:0853700080DE800200BD010592
:10537800D4B20181B0B0AF010000000008B10181D2
:10538800B0B000840000000084240181B00FB10097
:105398000000000008B10181B0B0008400000000E6
:1053A80008B10181B0B000840000000008B101819B
:1053B800B0B000840000000008B10181B0B00084E2
:1053C8000000000008B10181B0B0008400000000B6
:1053D80008B10181B0B000840000000008B101816B
:1053E800B0B000840000000008B10181B0B00084B2
:1053F8000000000008B10181B0B000840000000086
:0C54080008B10181B0B000840000000079
:1054140098ADFF7FB0AB0A8038AEFF7F0084048074
:1054240074AEFF7F50FFFF7F58B2FF7F0100000082
:1054340060B2FF7FB0A8078018B3FF7F01000000AF
:1054440018B4FF7FB0B0A88084B4FF7F34FFFF7F1F
:10545400A4B4FF7FA908B180B8B4FF7FB0B0A8801E
:10546400C8B4FF7FA908B180D6B4FF7FB0B0A880CC
:10547400DCB4FF7F18FFFF7FFCB4FF7F0100000056
:1054840020B5FF7FB0B0A88050B5FF7F0CFFFF7F31
:1054940060B5FF7FA908B18004B6FF7F010000005A
:1054A40044B6FF7F00FFFF7F58B6FF7F04FFFF7FF6
:1054B40060B6FF7F08FFFF7F6CB6FF7F010000002E
:1054C400BAB6FF7F04FFFF7FD8B6FF7FB0B0A880D5
:1054D40058B7FF7FB0AA018028B8FF7FA908B18020
:1054E40058B8FF7F0100000056B8FF7FB0B0AA8013
:1054F400A0B8FF7F0100000082C1FF7FD8FEFF7FBC
:10550400C0C1FF7F01000000ECC1FF7FB0B0AA80E2
:1055140074C2FF7F0100000074C3FF7FAD08B18037
:10552400A8C4FF7F01000000DCC4FF7FB0B0A880E6
:10553400F4C4FF7FB0AB028050C6FF7FAB08B180DC
:105544006CC6FF7F0100000078C6FF7F94FEFF7FDA
:1055540090C6FF7F98FEFF7F98C6FF7FA908B180A1
:10556400BCC6FF7FB0AD08809CC7FF7FB0AC018094
:10557400E0C7FF7F0100000048E9FF7FB0A9028077
:10558400E4E9FF7FB0B0A88034EAFF7F01000000A7
:1055940040EAFF7FB0B0AA8078EAFF7FAE71B280A4
:1055A40038EBFF7F0100000034EBFF7FAB3F388016
:1055B4008CEBFF7F0100000098EBFF7FB0B0AA8066
:1055C400D4EBFF7F0100000078ECFF7FAB0EB280CC
:1055D400E0ECFF7FB0AF0880ACEFFF7F010000007C
:1055E400B0EFFF7FAC3F038028F2FF7F0100000093
:1055F40004F4FF7F0084048018F4FF7F010000009E
:1056040014F4FF7FB0AD0480D0F6FF7FB0A8038010
:10561400F0F6FF7FE4FDFF7FF4F6FF7FE8FDFF7FF8
:0856240000F7FF7F0100000008
:10562C00172DEAABAF00BE38FA001111110152521E
:10563C000A065602A901AA00BA00060701101111A8
:10564C00002EC6E800AE0296240F87870764F50487
:10565C001F8707169706A7242EBAE8002E7AE800B3
:10566C00050D26C7011919011C51B29A1531002ECE
:10567C00FE18012FBEF8003E84E0012FC6F8003F53
:10568C009CF0013F9C10003EF4E80031FE18011F15
:10569C0010C2E8005953092184F00171D718017127
:1056AC00D61C012EC6E8002FBE10002EC6EC012F12
:1056BC00BE14013E38F8009F10420031C6E800319C
:1056CC002A4500B556A50051111501511142001F74
:1056DC0011F101570341100401AB032A1F092EFEDF
:1056EC0018012FBEF8003E84E0012FC6F8003F9C45
:1056FC00F0013F9C10003EF4E80031FE18011F1031
:10570C00C2E8005953092184F00171D7180171D6F0
:10571C001C012EC6E8002FBE10002EC6EC012FBEB9
:10572C0014013E38F8009F10420031C6E800312ABF
:10573C004500B556A50051111501511142001F111C
:10574C00F1019A021F6501D0050000000000030062
:10575C000100000001050200FC000100030204002E
:10576C00FC00020005050600FC000600050506000D
:10577C00FC000A0005050600FC000E0004050500EF
:10578C00FC00110002020300FC00120002050300E1
:10579C00FC00140002050300FC00160003030400C7
:1057AC00FC00180003030400FD001A0002020300B1
:1057BC00FF001B0003010400FE001C00010102009D
:1057CC0000001D0005050600FC0021000505060073
:1057DC00FC00250002050300FC0027000405050061
:1057EC00FC002A0004050500FC002D000405050042
:1057FC00FC00300004050500FC0033000405050026
:10580C00FC00360003050400FC003800050506000A
:10581C00FC003C0005050600FC00400001030200F2
:10582C00FD00410001040200FD00420002030300E0
:10583C00FD00430003030400FD00450002030300C8
:10584C00FD00460002050300FC00480007070800A5
:10585C00FA004F0005050600FC0053000505060084
:10586C00FC00570005050600FC005B000505060062
:10587C00FC005F0005050600FC0063000505060042
:10588C00FC00670005050600FC006B000505060022
:10589C00FC006F0001050200FC007000050506000D
:1058AC00FC00740004050500FC00770005050600EB
:1058BC00FC007B0005050600FC007F0005050600CA
:1058CC00FC00830005050600FC00870005050600AA
:1058DC00FC008B0005050600FC008F00050506008A
:1058EC00FC00930005050600FC009700050506006A
:1058FC00FC009B0005050600FC009F00050506004A
:10590C00FC00A30005050600FC00A7000505060029
:10591C00FC00AB0005050600FC00AF000505060009
:10592C00FC00B30002050300FC00B50005050600F1
:10593C00FC00B90002050300FC00BB0003020400DC
:10594C00FC00BC00050106000000BD0002020300C3
:10595C00FC00BE0005050600FC00C20005050600A3
:10596C00FC00C60005050600FC00CA000505060083
:10597C00FC00CE0005050600FC00D2000505060063
:10598C00FC00D60005050600FC00DA000505060043
:10599C00FC00DE0001050200FC00DF00050506002E
:1059AC00FC00E30004050500FC00E600050506000C
:1059BC00FC00EA0005050600FC00EE0005050600EB
:1059CC00FC00F20005050600FC00F60005050600CB
:1059DC00FC00FA0005050600FC00FE0005050600AB
:1059EC00FC00020105050600FC0006010505060089
:1059FC00FC000A0105050600FC000E010505060069
:105A0C00FC00120105050600FC0016010505060048
:105A1C00FC001A0105050600FC001E010505060028
:105A2C00FC00220102050300FC0024010105020018
:105A3C00FC00250102050300FC00270105030600FC
:105A4C00FD00FD011200B301D000CA013F00A2010C
:105A5C000000A1010000A0021411B5010000AB016F
:105A6C000100B402A0B5C101FF00C7010F00B900CD
:105A7C000000B101E200D102A220BB011F00B6015F
:105A8C000800BE010700A6000000A9000000AF003E
:105A9C0000000000000030313233343536373839ED
:105AAC006162636465667870003031323334353648
:105ABC003738394142434445465850002C30303039
:105ACC0031303230333034303530363037303830A6
